:020000040800F2
:1000000000500020ED2A0008012500080325000803
:100010000525000807250008092500080000000044
:10002000000000000000000000000000E152000895
:100030000B2500080000000081530008C55300088C
:10004000352B0008352B0008352B0008352B000810
:10005000352B0008352B00080D250008352B00082E
:10006000352B0008352B0008352B0008352B0008F0
:10007000352B000819250008292500083925000816
:10008000352B0008352B0008352B0008352B0008D0
:10009000352B0008352B0008352B0008352B0008C0
:1000A000352B0008352B0008352B0008352B0008B0
:1000B00049250008352B0008352B0008352B000892
:1000C000352B0008352B0008352B0008352B000890
:1000D000352B000859250008352B0008712500082C
:1000E000352B0008352B0008352B000800000000D8
:1000F0000000000000000000000000000000000000
:0C01000000000000000000005FF808F1A3
:1001100081F0004102E000BF83F0004330B54FEAB8
:1001200041044FEA430594EA050F08BF90EA020F25
:100130001FBF54EA000C55EA020C7FEA645C7FEAB8
:10014000655C00F0E2804FEA5454D4EB5555B8BFDB
:100150006D420CDD2C4480EA020281EA030382EA4C
:10016000000083EA010180EA020281EA0303362DDE
:1001700088BF30BD11F0004F4FEA01314FF4801CB1
:100180004CEA113102D0404261EB410113F0004FC3
:100190004FEA03334CEA133302D0524263EB43037A
:1001A00094EA050F00F0A780A4F10104D5F1200E18
:1001B0000DDB02FA0EFC22FA05F2801841F1000173
:1001C00003FA0EF2801843FA05F359410EE0A5F147
:1001D00020050EF1200E012A03FA0EFC28BF4CF078
:1001E000020C43FA05F3C01851EBE37101F000452E
:1001F00007D54FF0000EDCF1000C7EEB00006EEB3B
:100200000101B1F5801F1BD3B1F5001F0CD34908C4
:100210005FEA30004FEA3C0C04F101044FEA44521B
:1002200012F5800F80F09A80BCF1004F08BF5FEAA2
:10023000500C50F1000041EB045141EA050130BD82
:100240005FEA4C0C404141EB0101013C28BFB1F594
:10025000801FE9D291F0000F04BF01460020B1FADF
:1002600081F308BF2033A3F10B03B3F120020CDAB2
:100270000C3208DD02F1140CC2F10C0201FA0CF090
:1002800021FA02F10CE002F11402D8BFC2F1200CF5
:1002900001FA02F120FA0CFCDCBF41EA0C019040AB
:1002A000E41AA2BF01EB0451294330BD6FEA0404F4
:1002B0001F3C1CDA0C340EDC04F11404C4F12002DF
:1002C00020FA04F001FA02F340EA030021FA04F3F1
:1002D00045EA030130BDC4F10C04C4F1200220FA48
:1002E00002F001FA04F340EA0300294630BD21FA86
:1002F00004F0294630BD94F0000F83F4801306BF4C
:1003000081F480110134013D4EE77FEA645C18BF3F
:100310007FEA655C29D094EA050F08BF90EA020FD6
:1003200005D054EA000C04BF1946104630BD91EACE
:10033000030F1EBF0021002030BD5FEA545C05D1D1
:100340004000494128BF41F0004130BD14F5800410
:100350003CBF01F5801130BD01F0004545F0FE4184
:1003600041F470014FF0000030BD7FEA645C1ABFB9
:10037000194610467FEA655C1CBF0B46024650EAF0
:10038000013406BF52EA033591EA030F41F400211C
:1003900030BD00BF90F0000F04BF0021704730B5A2
:1003A0004FF4806404F132044FF000054FF0000177
:1003B00050E700BF90F0000F04BF0021704730B538
:1003C0004FF4806404F1320410F0004548BF40420D
:1003D0004FF000013EE700BF42004FEAE2014FEA62
:1003E00031014FEA02701FBF12F07F4393F07F4F3D
:1003F00081F06051704732F07F4208BF704793F040
:100400007F4F04BF41F40021704730B54FF4607452
:1004100001F0004521F000411CE700BF50EA010255
:1004200008BF704730B54FF000050AE050EA0102FE
:1004300008BF704730B511F0004502D5404261EB6E
:1004400041014FF4806404F132045FEA915C3FF4AF
:10045000D8AE4FF003025FEADC0C18BF03325FEA4C
:10046000DC0C18BF033202EBDC02C2F1200300FAFD
:1004700003FC20FA02F001FA03FE40EA0E0021FA22
:1004800002F11444BDE600BF70B54FF0FF0C4CF410
:10049000E06C1CEA11541DBF1CEA135594EA0C0FC2
:1004A00095EA0C0F00F0DEF82C4481EA030621EAFD
:1004B0004C5123EA4C5350EA013518BF52EA033538
:1004C00041F4801143F4801338D0A0FB02CE4FF0EA
:1004D0000005E1FB02E506F00042E0FB03E54FF01A
:1004E0000006E1FB03569CF0000F18BF4EF0010E12
:1004F000A4F1FF04B6F5007F64F5407404D25FEA0E
:100500004E0E6D4146EB060642EAC62141EA5551C0
:100510004FEAC52040EA5E504FEACE2EB4F1FD0C02
:1005200088BFBCF5E06F1ED8BEF1004F08BF5FEA80
:10053000500E50F1000041EB045170BD06F0004632
:1005400046EA010140EA020081EA0301B4EB5C04DF
:10055000C2BFD4EB0C0541EA045170BD41F48011D7
:100560004FF0000E013C00F3AB8014F1360FDEBFFC
:10057000002001F0004170BDC4F10004203C35DAD8
:100580000C341BDC04F11404C4F1200500FA05F35B
:1005900020FA04F001FA05F240EA020001F00042FC
:1005A00021F0004110EBD37021FA04F642EB060172
:1005B0005EEA430E08BF20EAD37070BDC4F10C049C
:1005C000C4F1200500FA04F320FA05F001FA04F260
:1005D00040EA020001F0004110EBD37041F100014C
:1005E0005EEA430E08BF20EAD37070BDC4F1200557
:1005F00000FA05F24EEA020E20FA04F301FA05F2BF
:1006000043EA020321FA04F001F0004121FA04F266
:1006100020EA020000EBD3705EEA430E08BF20EA36
:10062000D37070BD94F0000F0FD101F00046400070
:1006300041EB010111F4801F08BF013CF7D041EAF2
:10064000060195F0000F18BF704703F000465200F6
:1006500043EB030313F4801F08BF013DF7D043EAC7
:100660000603704794EA0C0F0CEA135518BF95EA7D
:100670000C0F0CD050EA410618BF52EA4306D1D104
:1006800081EA030101F000414FF0000070BD50EA23
:10069000410606BF1046194652EA430619D094EAAD
:1006A0000C0F02D150EA013613D195EA0C0F05D197
:1006B00052EA03361CBF104619460AD181EA0301EB
:1006C00001F0004141F0FE4141F470014FF00000A3
:1006D00070BD41F0FE4141F4780170BD70B54FF03E
:1006E000FF0C4CF4E06C1CEA11541DBF1CEA1355BE
:1006F00094EA0C0F95EA0C0F00F0A7F8A4EB0504A0
:1007000081EA030E52EA03354FEA013100F0888096
:100710004FEA03334FF0805545EA131343EA12635F
:100720004FEA022245EA111545EA10654FEA002614
:100730000EF000419D4208BF964244F1FD0404F5CD
:10074000407402D25B084FEA3202B61A65EB030529
:100750005B084FEA32024FF480104FF4002CB6EBE6
:10076000020E75EB030E22BFB61A754640EA0C0066
:100770005B084FEA3202B6EB020E75EB030E22BFA6
:10078000B61A754640EA5C005B084FEA3202B6EBE7
:10079000020E75EB030E22BFB61A754640EA9C00A6
:1007A0005B084FEA3202B6EB020E75EB030E22BF76
:1007B000B61A754640EADC0055EA060E18D04FEA34
:1007C000051545EA16754FEA06164FEAC30343EAD4
:1007D00052734FEAC2025FEA1C1CC0D111F4801FA1
:1007E0000BD141EA00014FF000004FF0004CB6E79A
:1007F00011F4801F04BF01430020B4F1FD0C88BF39
:10080000BCF5E06F3FF6AFAEB5EB030C04BFB6EB43
:10081000020C5FEA500C50F1000041EB045170BD36
:100820000EF0004E4EEA113114EB5C04C2BFD4EB63
:100830000C0541EA045170BD41F480114FF0000EE7
:10084000013C90E645EA060E8DE60CEA135594EA63
:100850000C0F08BF95EA0C0F3FF43BAF94EA0C0F66
:100860000AD150EA01347FF434AF95EA0C0F7FF4DB
:1008700025AF104619462CE795EA0C0F06D152EA2F
:1008800003353FF4FDAE1046194622E750EA410613
:1008900018BF52EA43067FF4C5AE50EA41047FF424
:1008A0000DAF52EA43057FF4EBAE12E74FEA410287
:1008B00012F5001215D211D56FF47873B3EB6252B2
:1008C00012D94FEAC12343F0004343EA505311F0D9
:1008D000004F23FA02F018BF404270474FF000006B
:1008E000704750EA013005D111F0004008BF6FF0A9
:1008F000004070474FF00000704700BF4FEA4102D0
:10090000B2F1E04324BFB3F5001CDCF1FE5C0DD96D
:1009100001F0004C4FEAC0024CEA5070B2F1004FB7
:1009200040EB830008BF20F00100704711F0804FBA
:1009300021D113F13872BCBF01F00040704741F47F
:1009400080114FEA5252C2F11802C2F1200C10FA83
:100950000CF320FA02F018BF40F001004FEAC12367
:100960004FEAD32303FA0CFC40EA0C0023FA02F30B
:100970004FEA4303CCE77FEA625307D150EA0133E1
:100980001EBF4FF0FE4040F44000704701F00040B1
:1009900040F0FE4040F40000704700BF80F000408F
:1009A00002E000BF81F0004142001FBF5FEA410347
:1009B00092EA030F7FEA226C7FEA236C6AD04FEA47
:1009C0001262D2EB1363C1BFD2184140484041408C
:1009D000B8BF5B42192B88BF704710F0004F40F43E
:1009E000000020F07F4018BF404211F0004F41F45A
:1009F000000121F07F4118BF494292EA030F3FD026
:100A0000A2F1010241FA03FC10EB0C00C3F1200338
:100A100001FA03F100F0004302D5494260EB4000C7
:100A2000B0F5000F13D3B0F1807F06D340084FEA32
:100A3000310102F10102FE2A51D2B1F1004F40EB27
:100A4000C25008BF20F0010040EA0300704749008F
:100A500040EB0000013A28BFB0F5000FEDD2B0FA2C
:100A600080FCACF1080CB2EB0C0200FA0CF0AABF4F
:100A700000EBC25052421843BCBFD04018437047ED
:100A800092F0000F81F4000106BF80F400000132F3
:100A9000013BB5E74FEA41037FEA226C18BF7FEACA
:100AA000236C21D092EA030F04D092F0000F08BF0C
:100AB0000846704790EA010F1CBF0020704712F0F3
:100AC0007F4F04D1400028BF40F00040704712F132
:100AD00000723CBF00F50000704700F0004343F097
:100AE000FE4040F4000070477FEA226216BF0846CD
:100AF0007FEA23630146420206BF5FEA412390EA90
:100B0000010F40F4800070474FF0000304E000BF85
:100B100010F0004348BF40425FEA000C08BF704736
:100B200043F0964301464FF000001CE050EA0102FA
:100B300008BF70474FF000030AE000BF50EA01020F
:100B400008BF704711F0004302D5404261EB4101FC
:100B50005FEA010C02BF84460146002043F0B64321
:100B600008BFA3F18053A3F50003BCFA8CF2083A46
:100B7000A3EBC25310DB01FA02FC634400FA02FC4F
:100B8000C2F12002BCF1004F20FA02F243EB020056
:100B900008BF20F00100704702F1200201FA02FCB8
:100BA000C2F1200250EA4C0021FA02F243EB0200AB
:100BB00008BF20EADC7070474FF0FF0C1CEAD052EF
:100BC0001EBF1CEAD15392EA0C0F93EA0C0F6FD0B0
:100BD0001A4480EA010C400218BF5FEA41211ED08E
:100BE0004FF0006343EA501043EA5111A0FB01317A
:100BF0000CF00040B1F5000F3EBF490041EAD3714F
:100C00005B0040EA010062F17F02FD2A1DD8B3F1CA
:100C1000004F40EBC25008BF20F00100704790F039
:100C2000000F0CF0004C08BF49024CEA502040EA8B
:100C300051207F3AC2BFD2F1FF0340EAC250704751
:100C400040F400004FF00003013A5DDC12F1190F8F
:100C5000DCBF00F000407047C2F10002410021FA01
:100C600002F1C2F1200200FA02FC5FEA310040F119
:100C7000000053EA4C0308BF20EADC70704792F092
:100C8000000F00F0004C02BF400010F4000F013ACA
:100C9000F9D040EA0C0093F0000F01F0004C02BFC5
:100CA000490011F4000F013BF9D041EA0C018FE734
:100CB0000CEAD15392EA0C0F18BF93EA0C0F0AD03A
:100CC00030F0004C18BF31F0004CD8D180EA010060
:100CD00000F00040704790F0000F17BF90F0004FF9
:100CE000084691F0000F91F0004F14D092EA0C0FDB
:100CF00001D142020FD193EA0C0F03D14B0218BF6E
:100D0000084608D180EA010000F0004040F0FE40B3
:100D100040F40000704740F0FE4040F4400070474F
:100D20004FF0FF0C1CEAD0521EBF1CEAD15392EACE
:100D30000C0F93EA0C0F69D0A2EB030280EA010CBE
:100D400049024FEA402037D04FF0805343EA111157
:100D500043EA10130CF000408B4238BF5B0042F1B5
:100D60007D024FF4000C8B4224BF5B1A40EA0C005A
:100D7000B3EB510F24BFA3EB510340EA5C00B3EB8C
:100D8000910F24BFA3EB910340EA9C00B3EBD10F7A
:100D900024BFA3EBD10340EADC001B0118BF5FEACC
:100DA0001C1CE0D1FD2A3FF650AF8B4240EBC250F5
:100DB00008BF20F0010070470CF0004C4CEA5020B6
:100DC0007F32C2BFD2F1FF0340EAC250704740F405
:100DD00000004FF00003013A37E792F0000F00F0F7
:100DE000004C02BF400010F4000F013AF9D040EA75
:100DF0000C0093F0000F01F0004C02BF490011F409
:100E0000000F013BF9D041EA0C0195E70CEAD15300
:100E100092EA0C0F08D142027FF47DAF93EA0C0FE7
:100E20007FF470AF084676E793EA0C0F04D14B02CB
:100E30003FF44CAF08466EE730F0004C18BF31F07D
:100E4000004CCAD130F000427FF45CAF31F0004377
:100E50007FF43CAF5FE700BF4FF0FF3C06E000BF10
:100E60004FF0010C02E000BF4FF0010C4DF804CD33
:100E70004FEA40024FEA41037FEA226C18BF7FEA43
:100E8000236C11D001B052EA530C18BF90EA010F45
:100E900058BFB2EB030088BFC81738BF6FEAE170D4
:100EA00018BF40F0010070477FEA226C02D15FEA70
:100EB000402C05D17FEA236CE4D15FEA412CE1D0DC
:100EC0005DF8040B704700BF844608466146FFE7A3
:100ED0000FB5FFF7C9FF002848BF10F1000F0FBD85
:100EE0004DF808EDFFF7F4FF0CBF012000205DF87E
:100EF00008FB00BF4DF808EDFFF7EAFF34BF012003
:100F000000205DF808FB00BF4DF808EDFFF7E0FF9B
:100F100094BF012000205DF808FB00BF4DF808EDEC
:100F2000FFF7D2FF94BF012000205DF808FB00BF4F
:100F30004DF808EDFFF7C8FF34BF012000205DF831
:100F400008FB00BF4FEA4002B2F1FE4F0FD34FF053
:100F50009E03B3EB12620DD94FEA002343F0004326
:100F600010F0004F23FA02F018BF404270474FF0D4
:100F70000000704712F1610F01D1420205D110F05B
:100F8000004008BF6FF0004070474FF0000070470E
:100F9000844641EA000313F0030349D1403A23D3C6
:100FA0000B6803604B6843608B688360CB68C360E9
:100FB0000B6903614B6943618B698361CB69C361D1
:100FC0000B6A03624B6A43628B6A8362CB6AC362B9
:100FD0000B6B03634B6B43638B6B8363CB6BC363A1
:100FE00040304031403ADBD230320BD30B680360E3
:100FF0004B6843608B688360CB68C36010301031EE
:10100000103AF3D20C3205D351F8043B40F8043BBC
:10101000043AF9D2043208D0D2071CBF11F8013BC0
:1010200000F8013B01D30B8803806046704700BF86
:10103000082A13D38B07B1D010F00303AED0C3F14D
:101040000403D21ADB071CBF11F8013B00F8013B77
:10105000A4D331F8023B20F8023B9FE7043AD9D3EE
:10106000013A11F8013B00F8013BF9D20B7803700B
:101070004B7843708B788370604670474FF0FF3C2D
:1010800006E000BF4FF0010C02E000BF4FF0010C82
:101090004DF804CD4FEA410C7FEA6C5C4FEA430CFB
:1010A00018BF7FEA6C5C1BD001B050EA410C0CBF4A
:1010B00052EA430C91EA030F02BF90EA020F0020AC
:1010C000704710F1000F91EA030F58BF994208BF13
:1010D00090422CBFD8176FEAE37040F001007047D0
:1010E0004FEA410C7FEA6C5C02D150EA013C07D127
:1010F0004FEA430C7FEA6C5CD6D152EA033CD3D072
:101100005DF8040B704700BF8446104662468C466B
:101110001946634600E000BF01B5FFF7B7FF00289E
:1011200048BF10F1000F01BD4DF808EDFFF7F4FFC7
:101130000CBF012000205DF808FB00BF4DF808ED52
:10114000FFF7EAFF34BF012000205DF808FB00BF75
:101150004DF808EDFFF7E0FF94BF012000205DF897
:1011600008FB00BF4DF808EDFFF7CEFF94BF01204C
:1011700000205DF808FB00BF4DF808EDFFF7C4FF45
:1011800034BF012000205DF808FB00BF4FEA410C8E
:101190007FEA6C5C02D150EA013C0AD14FEA430C71
:1011A0007FEA6C5C02D152EA033C02D14FF00000AE
:1011B00070474FF0010070474A0011D212F500123B
:1011C00011D20DD56FF47873B3EB62520ED44FEA9F
:1011D000C12343F0004343EA505323FA02F070471F
:1011E0004FF00000704750EA013002D14FF0FF305D
:1011F00070474FF0000070474FEA40024FEA41034A
:101200007FEA226C02D15FEA402C08D17FEA236C8E
:1012100002D15FEA412C02D14FF0000070474FF03D
:101220000100704753B94AB9002908BF00281CBF04
:101230004FF0FF314FF0FF3000F0AEB9ADF1080CC8
:101240006DE904CE00F03EF8DDF804E0DDE90223AC
:1012500004B0704738B505460C46002200232846E6
:101260002146FFF76BFF28B928462146BDE83840E4
:1012700000F00AB8284604F1004100F005F84042A9
:1012800061EB410138BD00BFD0B500220B4B0646D3
:101290000F46FFF7F9F8FFF78FFF0446FFF77AF8DC
:1012A0000022074BFFF7F0F802460B46304639465E
:1012B000FEF732FFFFF780FF2146D0BD0000F03D72
:1012C0000000F0412DE9F047089E0D46044688468F
:1012D000002B4DD18A42944668D9B2FA82F252B1BB
:1012E00001FA02F3C2F1200120FA01F10CFA02FC2A
:1012F00041EA030894404FEA1C41B8FBF1F71FFA9A
:101300008CFE01FB178807FB0EF0230C43EA084311
:1013100098420AD91CEB030307F1FF3580F01E81C8
:10132000984240F21B81023F63441B1AB3FBF1F069
:1013300001FB103300FB0EFEA4B244EA0344A645B1
:101340000AD91CEB040400F1FF3380F00981A645A3
:1013500040F20681644402380021A4EB0E0440EA06
:1013600007401EB10023D440C6E90043BDE8F08722
:101370008B4208D9002E00F0EE800021C6E900055E
:101380000846BDE8F087B3FA83F100294AD1AB42A1
:1013900002D3824200F2FC80841A65EB0303012031
:1013A0009846002EE2D0C6E90048DFE702B9FFDE2A
:1013B000B2FA82F2002A40F09180A1EB0C000121E8
:1013C0004FEA1C471FFA8CFEB0FBF7F307FB130034
:1013D000250C45EA00450EFB03F0A84208D91CEB9A
:1013E000050503F1FF3802D2A84200F2CE80434641
:1013F0002D1AB5FBF7F007FB10550EFB00FEA4B24B
:1014000044EA0544A64508D91CEB040400F1FF3565
:1014100002D2A64500F2B6802846A4EB0E0440EAAC
:1014200003409EE7C1F120078B4022FA07FC4CEAFB
:10143000030C25FA07FA4FEA1C49BAFBF9F820FA1F
:1014400007F309FB18AA8D401FFA8CFE1D4300FA12
:1014500001F308FB0EF02C0C44EA0A44A04202FA05
:1014600001F20BD91CEB040408F1FF3A80F08880EC
:10147000A04240F28580A8F102086444241AB4FB1B
:10148000F9F009FB104400FB0EFEADB245EA04443E
:10149000A64508D91CEB040400F1FF356CD2A64523
:1014A0006AD90238644440EA0840A0FB0295A4EBE4
:1014B0000E04AC42C846AE4656D353D0002E69D077
:1014C000B3EB080264EB0E0422FA01F304FA07F707
:1014D0001F43CC40C6E90074002147E70CFA02FC28
:1014E000C2F1200125FA01F34FEA1C4720FA01F16D
:1014F00095400D43B3FBF7F107FB11331FFA8CFE48
:10150000280C40EA034001FB0EF3834204FA02F484
:1015100008D91CEB000001F1FF382FD283422DD9EE
:1015200002396044C01AB0FBF7F307FB1300ADB2F9
:1015300045EA004503FB0EF0A84208D91CEB05055F
:1015400003F1FF3816D2A84214D9023B6544281A89
:1015500043EA014138E73146304607E72F46E4E6E3
:101560001846F9E64B45A9D2B9EB020865EB0C0E1B
:101570000138A3E74346EAE7284694E74146D1E726
:10158000D0467BE76444023847E7023B65442FE7D7
:10159000084606E73146E9E6704700BFF8B5234B39
:1015A00001221A60224C204600F0FCF8204600F090
:1015B00017F90521204600F06BF9D4E91001FFF777
:1015C0009DF901461B4C204600F010FB1A4DD5E951
:1015D0001001FFF793F90146204600F015FB174F65
:1015E000174ED5E91001FFF789F901463B4632460F
:1015F000204600F058FB01462062124C204600F0C5
:10160000F5FAD5E91401FFF779F90146204600F013
:10161000FBFAD5E91401FFF771F901463B46324662
:10162000204600F040FB2062F8BD00BF6C10002097
:10163000600C0020C00C0020000C0020000048437B
:10164000CDCCCC3D140D0020F8B51C4B01221A6006
:101650001B4C1C4B1968204600F0C8FA1A4DD5E9FE
:101660001001FFF74BF90146204600F0CDFA174F65
:10167000174ED5E91001FFF741F901463B463246C6
:10168000204600F010FB01462062124C204600F07C
:10169000ADFAD5E91401FFF731F90146204600F013
:1016A000B3FAD5E91401FFF729F901463B46324662
:1016B000204600F0F8FA2062F8BD00BF6C10002050
:1016C000C00C0020E40B0020000C00200000484368
:1016D000CDCCCC3D140D002038B50B4DD5E914010F
:1016E000FFF70CF90146094C204600F08DFAD5E9C8
:1016F0001401FFF703F90146054B064A204600F0A6
:10170000D2FA206238BD00BF000C0020140D00206A
:1017100000004843CDCCCC3D0FB410B582B004AB33
:1017200053F8042B0193084C4FF40071204606F047
:101730001BFD82B22146054803F0DCF802B0BDE88B
:10174000104004B0704700BFC0090020D412002030
:1017500084B010B584460DF10C0E8EE80E000446E0
:10176000BEE80F000FC4DEF8003023600023ACF8A1
:10177000183000220023CCE90823CCE90A230022F8
:101780000023CCE90C23CCE90E23CCE91023CCE9CF
:101790001423CCE9122302238CF85830BDE8104002
:1017A00004B0704710B4046823681B68C3F30013C7
:1017B00080F8583023685B6A1BB20383D9178362B1
:1017C000C162026AD318426A41EB020103624162BC
:1017D000236800225A6210BC70470000000000001D
:1017E0002DE9D043044600F12001D1E90001FEF7C4
:1017F0001DFE06460F462079FEF7CCFD8046894641
:10180000A068FEF7E9FD02460B4640464946FEF752
:101810003BFE80468946A089FEF7BCFD02460B468A
:1018200040464946FEF730FE02460B4630463946F2
:10183000FEF754FF06460F46C4E90C670022124B20
:10184000FEF722FEC4E9100132463B4630463946D7
:10185000FEF764FC0AA3D3E90023FEF715FE064653
:101860000F462069FEF7B8FD02460B463046394662
:10187000FEF70AFEC4E90E01BDE8D083AFF3008095
:1018800044174154FB2109400080764000000000CD
:101890002DE9F84304460D4600F12801D1E9000185
:1018A000FEF7C4FD06460F462079FEF773FD80461D
:1018B0008946A068FEF790FD02460B464046494621
:1018C000FEF7E2FD80468946A089FEF763FD0246E9
:1018D0000B4640464946FEF7D7FD02460B463046CA
:1018E0003946FEF7FBFE00221B4BFEF7CDFD002222
:1018F0001A4BFEF7C9FD06460F462846FEF75AFD6D
:1019000002460B4630463946FEF7E8FE02460B46D5
:10191000C4E914230022114BFEF7E0FE02460B46F9
:10192000FEF7FCFB0AA3D3E90023FEF7ADFD064654
:101930000F462069FEF750FD02460B4630463946F9
:10194000FEF7A2FDC4E91201BDE8F883AFF3008001
:1019500044174154FB21094000408F4000004E4095
:1019600008B505480268D36843F01003D36021220C
:10197000024903F01BFB08BD1C130020C00B002014
:1019800038B50446114B1968FFF70CF805461049A5
:10199000FFF7CEFA18B10F4A1368013B13600E49E6
:1019A0002846FFF7A7FA18B10A4A136801331360F3
:1019B000084B1868FFF7ACF80849FFF7FDF8214617
:1019C000FEF7F2FF014B1C6038BD00BFF40B002096
:1019D00000009643F80B0020000096C30000B443BB
:1019E000F8B5002401E0013464B2022C46DC04EBBB
:1019F000840504EB4505224B5B5D552B3ED16B1CEA
:101A00001F4AD35C532BEED1EB1C1646D35CAA1CA9
:101A1000B05C40EA032000B2FFF77AF81949FFF7FB
:101A2000CBF84FF06051FFF7C7F8174F38606B1DC8
:101A3000F35C2A1DB05C40EA032000B2FFF768F8AF
:101A40001049FFF7B9F84FF06051FFF7B5F878602B
:101A5000EB1DF35C0635705D40EA032000B2FFF732
:101A600057F80849FFF7A8F84FF06051FFF7A4F8BE
:101A7000B860FFF785FF054B1860B4E7F8BD00BFFD
:101A8000C00B002000003443E80B0020E40B0020D2
:101A9000134B1B681A6812F0100F00D17047F0B595
:101AA00083B0002701971A6801925B680193019B3C
:101AB0000B4D284602F060FFFFF792FF094B1B68B1
:101AC0005A6821245C60084E22463946304605F0AB
:101AD0000BFB22463146284603F068FA03B0F0BDFE
:101AE0001C13002090120020C00B002070B505468A
:101AF0000C4601F1004601463046FFF705FA20B1D9
:101B000029462046FFF70AFA38B929462046FFF74A
:101B1000F1F900B12646304670BD2E46FBE703467C
:101B20004842984201DC994203DA994202DA0846B7
:101B3000704718467047000038B5041E0DDC002CB5
:101B40001FDB1A4C01220821204601F04CFD012226
:101B50001021204601F047FD12E0144D002208211B
:101B6000284601F040FD01221021284601F03BFDEE
:101B70004FF496612046FFF7D2FF0D4B1B68586368
:101B800038BD0A4D01220821284601F02CFD002213
:101B90001021284601F027FD4FF496612046FFF7FB
:101BA000BEFF034B1B6840425863E9E70008014051
:101BB00030110020016042608360009B8363019BC1
:101BC000C363029B83620023036143618361C3613A
:101BD0000362C3624363036343640364C3644FF0FB
:101BE0007E538364039B80F850307047C160704718
:101BF00038B504460D46006CFFF772F918B9256434
:101C0000012384F8503038BDF8B504460D4690F8ED
:101C10005030012B08D02561E36A23632946E06830
:101C2000FEF7C0FEE062F8BD466C816C3046FFF7FF
:101C300061F930B14FF07E513046FEF7B5FE606479
:101C4000E9E700236364E768266C31463846FFF70E
:101C500051F978B1E16C3846FEF7A6FE0146E06026
:101C60003046FFF751F90028D5D0E660002384F80C
:101C70005030D0E731463846FFF75AF978B1E16C79
:101C80003846FEF78FFE0146E0603046FFF746F922
:101C90000028C0D0E660002384F85030BBE7002362
:101CA00084F85030B7E7F8B504461E46C76A39468F
:101CB0000068FEF781FF0546606106F10041384685
:101CC000FFF736F920B131463846FFF713F940BB2C
:101CD000E1692846FEF768FE2062E16BFFF706FF28
:101CE0002062656A2946206AFEF75CFEA66A3146D4
:101CF000FFF71EF920B131462846FEF755FE206257
:101D00002946206AFEF74EFE06F10041FFF7F2F881
:101D100020B131462846FEF745FE2062206A606207
:101D2000F8BD616B3846FEF73FFE60636168FEF701
:101D300043FFA061A16BFFF7D9FE0646A061A5682D
:101D4000216BE06AFEF72EFE01462846FEF734FFBF
:101D50000546E06161693046FEF726FE01462846E9
:101D6000FEF722FE2062E16BFFF7C0FE2062B8E7BB
:101D700010B58EB01D4C0DF1240CA646BEE80F0028
:101D8000ACE80F00DEF80030CCF800300EAB13E901
:101D900003008DE8030009AB0ECB1548FFF7D8FC14
:101DA0000DF1100E04F1140CBCE80F00AEE80F00AA
:101DB000DCF80030CEF8003007AB93E803008DE884
:101DC000030004AB0ECB0B48FFF7C2FC00230393C8
:101DD000094B0293094B0193094B00930023094AD5
:101DE00009490A48FFF7E6FE0EB010BDB0EB000847
:101DF000000C0020600C002000803B4500007A446D
:101E0000000048449A99193F0000F041140D002049
:101E100008B505480268D36843F01003D360FF2279
:101E2000024903F0C3F808BDD4120020680D002059
:101E3000F8B5054602F0A0FD414A424B191D03C901
:101E400010601171404AD3F80900D3F80D1003C295
:101E5000B3F811101180EA6B12685468E4B2E443DD
:101E6000E4B25B783A2B21D03A2B27D0374B1A6853
:101E7000374981FB0231D317C3EB610303EB8303C3
:101E8000D31A03D12F4A1278742A1FD0012B26D0DF
:101E9000022B31D02B4E22460021304605F024F98A
:101EA000FF223146284603F081F8F8BD254A927892
:101EB000312AD9D1274B01221A60D7E7214B9B78D1
:101EC000302BD3D1234B00221A60CFE722491C4884
:101ED00006F0FAF801462148FFF788FEDAE7194ACA
:101EE0001278742AD4D11C49154806F0EDF8014641
:101EF0001B48FFF77BFECDE7124B1B78702BC9D137
:101F0000154F39460E4806F0DFF8064639460E48AA
:101F100006F0DAF81349FEF74FFE0146FEF744FDDE
:101F20001149FEF749FE1149FEF7FAFE03460C4837
:101F3000C3640A4AD3643146FFF75AFEAAE700BFDA
:101F4000680E0020680D0020680F002000000020AF
:101F5000676666666C10002068100020140D002073
:101F6000C00C00200000B4430000A04000606A479D
:101F700003680B4A1268934200D070471A6812F047
:101F8000100FFAD000B583B0002201921A680192B6
:101F90005B680193019BFFF74BFF03B05DF804FB07
:101FA000D412002000B585B000230193029303935F
:101FB0001048114A02608360037303754FF4602276
:101FC000C26143600123036100F000FF60B9002398
:101FD000019301220292039301A9064800F0E4FD57
:101FE00028B905B05DF804FB00F08DF9EFE700F0CB
:101FF0008AF9F6E7701000200024014000B585B092
:1020000000230193029303931048114A02608360F6
:10201000037303754FF46022C261436001230361BF
:1020200000F0D4FE60B901230193029300230393CF
:1020300001A9064800F0B8FD28B905B05DF804FB19
:1020400000F061F9EFE700F05EF9F6E7A01000207C
:102050000028014000B589B000230493059306933E
:1020600007930368204A934205D0204A93421ED02A
:1020700009B05DF804FB1E4B9A6942F400729A6144
:102080009A6902F400720092009A9A6942F004027E
:102090009A619B6903F004030193019B012304935C
:1020A0000323059304A9134801F084F9E0E7104BDA
:1020B0009A6942F480629A619A6902F4806202929B
:1020C000029A9A6942F004029A619B6903F0040340
:1020D0000393039B022304930323059304A9054858
:1020E00001F068F9C4E700BF002401400028014066
:1020F000001002400008014000B583B0124B5A693D
:1021000042F001025A615B6903F001030193019BF4
:10211000002205210D2000F06FFF0D2000F0A4FF2C
:10212000002205210E2000F067FF0E2000F09CFF2A
:10213000002205210F2000F05FFF0F2000F094FF28
:1021400003B05DF804FB00BF0010024008B5002397
:1021500083F31188012002F0FBFFFBE700B583B099
:1021600004F096F8019004F02DFF052101A804F079
:102170009DF9F5E700B583B004F08AF8019004F00A
:1021800095FD012101A804F091F9F5E700B583B0B0
:1021900004F07EF8019004F099FD012101A804F0FB
:1021A00085F9F5E700B583B004F072F8019004F00A
:1021B000B5FE012101A804F079F9F5E708B5124A46
:1021C0000021124802F04EFF114B1860114A002105
:1021D000114802F047FF114B1860114A00211148C5
:1021E00002F040FF104B1860104A0021104802F026
:1021F00039FF104B1860104A0021104802F032FFDE
:102200000F4B186008BD00BFA0EC00084D2100086E
:10221000E01000207CEC00085D210008DC100020AC
:1022200010EC000875210008D010002034EC0008E4
:102230008D210008D410002058EC0008A5210008CA
:10224000D810002070B588B000240494059406943A
:102250000794244B9A6942F010029A619A6902F03D
:1022600010020092009A9A6942F020029A619A69DB
:1022700002F020020192019A9A6942F004029A61E6
:102280009A6902F004020292029A9A6942F00802E4
:102290009A619B6903F008030393039B124E224645
:1022A0001821304601F09FF9182304930125059564
:1022B00006950323079304A9304601F07BF80495A3
:1022C0000A4B0593069504A9094801F073F82246C4
:1022D0000521062000F090FE062000F0C5FE08B0A3
:1022E00070BD00BF00100240000801400000111046
:1022F000000C014008B50368B3F1804F00D008BD61
:1023000000F02CFCFBE772B6FEE700B595B0282282
:1023100000210DEB020004F0E7FE00230593069375
:102320000793089309930193029303930493012263
:102330000A924FF480330B930E9202221192129361
:102340004FF4E01313930AA801F078F9C8B90F23EA
:10235000059302210691002307934FF480620892AF
:10236000099305A801F09CFB68B9022301934FF47F
:102370000043039301A801F08DFC30B915B05DF85E
:1023800004FBFFF7C0FFFFF7BEFFFFF7BCFF000035
:1023900008B500F0D1FBFFF7B8FFFFF753FFFFF7D9
:1023A000ABFE00F0A1FA00F04DF9FFF7FBFDFFF7DF
:1023B00025FE00F079F900F0B1FA00F039FA0021B9
:1023C0000E4802F079F804210D4802F0E3F80421E8
:1023D0000C4802F0DFF80C4800F07CFDFFF7C8FC69
:1023E000FFF716FDFFF7BCFA02F0F4FDFFF7E6FE7B
:1023F00002F012FE0A2000F0C3FBFBE730110020C0
:1024000078110020C01100207010002000B583B0AA
:10241000114B9A6942F001029A619A6902F0010235
:102420000092009ADA6942F08052DA61DB6903F0C7
:1024300080530193019B00220F216FF0010000F0F7
:10244000DBFD064A536823F0E06343F000735360FA
:1024500003B05DF804FB00BF001002400000014023
:1024600030B589B00446224BDA6942F00102DA61E4
:10247000DB6903F001030193019B02A903A801F0AA
:10248000EBFB069BD3B901F0C7FB03461948A0FB41
:1024900003239B0C013B18484FF08042026040F23E
:1024A000E732C2604360002303618360836101F00F
:1024B0009FFE054630B1284609B030BD01F0ACFBA7
:1024C0004300E3E70C4801F063FD05460028F2D124
:1024D0001C2000F0C9FD0F2C01D90125EBE70022DB
:1024E00021461C2000F088FD044B1C60E3E700BF80
:1024F0000010024083DE1B43E41000200C0000208B
:10250000FEE7FEE7FEE7FEE7FEE7704708B50120BD
:1025100001F070F808BD000008B5024800F0A8FE00
:1025200008BD00BF9012002008B5024800F0A0FED0
:1025300008BD00BF4C12002008B5024800F098FE0C
:1025400008BD00BF0812002008B5024801F058FD80
:1025500008BD00BFE410002010B5044C204602F076
:1025600033FB2046FFF704FD10BD00BFD41200204E
:1025700008B5034802F028FBFFF78AFA08BD00BF40
:102580001C1300200120704708B504F083FD1623BA
:1025900003604FF0FF3008BD08B54FF0FF31FFF783
:1025A000F3FFFEE770B50C461646002506E0AFF3D4
:1025B0000080214601F8010B01350C46B542F6DBDF
:1025C000304670BD70B50C461646002504E014F880
:1025D000010BAFF300800135B542F8DB304670BD2A
:1025E0004FF0FF3070474FF400534B6000207047AE
:1025F000012070470020704710B503460C4A0D4972
:102600000D48006840B10C4800680344521A9342D8
:1026100006D8094A136010BD0748084C0460F2E769
:1026200004F038FD0C2303604FF0FF30F3E700BFE8
:1026300000500020000400002C1100200848002059
:102640007047000000B58DB02422002103A804F0DB
:102650004BFD0023019302931148124A026043602C
:1026600083604FF6FF72C2600361836103230393AB
:1026700001230593099303A901F012FE50B9002329
:102680000193029301A9064801F0EAFF28B90DB0B1
:102690005DF804FBFFF737FEF1E7FFF734FEF6E7DE
:1026A000781100200004004000B58DB024220021E4
:1026B00003A804F019FD0023019302931148124A64
:1026C0000260436083604FF6FF72C2600361836102
:1026D0000323039301230593099303A901F0E0FD6C
:1026E00050B900230193029301A9064801F0B8FFF5
:1026F00028B90DB05DF804FBFFF705FEF1E7FFF721
:1027000002FEF6E7C0110020000800400268094BF5
:102710009A4200D0704782B003F564439A6942F44C
:1027200000629A619B6903F400630193019B02B00C
:10273000704700BF002C014000B589B0002304930E
:102740000593069307930368204A934205D0204AD5
:1027500093421ED009B05DF804FB1E4BDA6942F0CB
:102760000202DA61DA6902F002020092009A9A69C2
:1027700042F004029A619B6903F004030193019BF8
:10278000C02304930123069304A9134800F012FE0A
:10279000E0E7104BDA6942F00402DA61DA6902F02C
:1027A00004020292029A9A6942F008029A619B69B5
:1027B00003F008030393039BC023049301230693B0
:1027C00004A9064800F0F6FDC4E700BF000400407D
:1027D000000800400010024000080140000C0140C9
:1027E00000B587B000230293039304930593026816
:1027F0000D4B9A4202D007B05DF804FB03F5644329
:102800009A6942F004029A619B6903F00403019300
:10281000019B4FF48073029302230393059302A953
:10282000024800F0C7FDE6E7002C01400008014027
:1028300010B592B000241094119409940A940B944A
:102840000C940D940E940F942022214601A804F0BC
:102850004BFC2348234B036005234360846040F214
:10286000AF43C36004614461846101F0EDFC002862
:1028700029D100231093119310A9194801F0F0FEFB
:1028800020BB6023099300220A920B920C920D92B6
:102890000E920F9209A9124801F090FDC8B90023C9
:1028A000019302930393049305934FF4005206920D
:1028B000089301A90A4801F009FF68B90848FFF721
:1028C0008FFF12B010BDFFF71EFDD2E7FFF71BFD13
:1028D000D7E7FFF718FDE2E7FFF715FDEEE700BFCA
:1028E00030110020002C014008B50A480A4B036053
:1028F0004FF4E133436000238360C36003610C2223
:1029000042618361C36101F0C5FF00B908BDFFF7F3
:10291000FAFCFBE7D41200200038014008B50A4851
:102920000A4B03604FF4E133436000238360C360CC
:1029300003610C2242618361C36101F0ABFF00B906
:1029400008BDFFF7E0FCFBE71C1300200048004037
:1029500070B588B00446002304930593069307934B
:102960000368574A934204D0564A93425FD008B056
:1029700070BD554B9A6942F480429A619A6902F49B
:1029800080420092009A9A6942F004029A619B691F
:1029900003F004030193019B4FF40073049302239B
:1029A000059303230793494E04A9304600F002FD26
:1029B0004FF480630493002505950123069304A931
:1029C000304600F0F7FC4248424B0360102343605E
:1029D00085608023C360056145618561C56100F044
:1029E00067FBF0B93A4BA3635C623B483B4B036027
:1029F0000023436083608022C26003614361202220
:102A00008261C36100F054FB70B9334BE3635C62D5
:102A100000220521252000F0EFFA252000F024FBFC
:102A2000A5E7FFF770FCDDE7FFF76DFCEDE7264B50
:102A3000DA6942F48022DA61DA6902F480220292D1
:102A4000029A9A6942F008029A619B6903F00803AE
:102A50000393039B4FF480630493022305930323A2
:102A600007931F4E04A9304600F0A4FC4FF4006306
:102A7000049300250595069504A9304600F09AFCBC
:102A80001848194B0360456085608023C360056169
:102A90004561202383614FF44053C36100F008FB7C
:102AA00058B9104BE3635C6200220521272000F037
:102AB000A3FA272000F0D8FA59E7FFF724FCF0E743
:102AC000003801400048004000100240000801406A
:102AD0004C1200204400024008120020580002401E
:102AE000000C01409012002030000240FFF7A8FDCA
:102AF0000B480C490C4A002302E0D458C45004335C
:102B0000C4188C42F9D3094A094C002301E0136030
:102B10000432A242FBD304F0C3FAFFF739FC70473A
:102B200000000020C00900205CF30008C00900205C
:102B300004480020FEE7000008B5074A136843F088
:102B400010031360032000F045FA0F20FFF788FC04
:102B5000FFF75CFC002008BD00200240034A11681A
:102B6000034B1B780B441360704700BF64130020B5
:102B700008000020014B1868704700BF6413002054
:102B800038B50446FFF7F6FF0546B4F1FF3F02D023
:102B9000044B1B781C44FFF7EDFF401BA042FAD307
:102BA00038BD00BF0800002030B482B0002201927E
:102BB00090F82420012A00F091800346012280F839
:102BC00024204A68062A2DD80468606B02EB820232
:102BD000053A4FF01F0C0CFA02FC20EA0C000D68BD
:102BE00005FA02F2024362630A68092A3AD91C68AC
:102BF000E06802EB42021E3A4FF0070C0CFA02FCAE
:102C000020EA0C008D6805FA02F20243E2600A68CD
:102C1000103A012A36D90020002283F8242002B07D
:102C200030BC70470C2A0ED80568286B02EB820274
:102C3000233A1F24944020EA04000C6804FA02F2AC
:102C400002432A63D0E70568E86A02EB8202413A50
:102C50001F24944020EA04000C6804FA02F20243A4
:102C6000EA62C1E71C68206902EB42024FF0070CE0
:102C70000CFA02FC20EA0C008D6805FA02F202430D
:102C80002261C4E71A681648824205D09A6A42F067
:102C900020029A620120BFE7906810F4000F1BD158
:102CA000906840F4000090600A68102A01D000206B
:102CB000B2E70C4A12680C49A1FB0212920C02EB1B
:102CC00082025200019202E0019A013A0192019AB5
:102CD000002AF9D100209FE700209DE702209EE70F
:102CE000002401400400002083DE1B4330B583B084
:102CF0000023019303689A6812F0010F33D1044650
:102D00009A6842F001029A60184B1B68184AA2FBAD
:102D100003239B0C019302E0019B013B0193019B68
:102D2000002BF9D1FFF726FF054623689B6813F0B7
:102D3000010F16D1FFF71EFF431B022BF5D92368A5
:102D40009B6813F0010FF0D1A36A43F01003A36254
:102D5000E36A43F00103E362002384F82430012096
:102D600002E0002000E0002003B030BD040000209D
:102D700083DE1B4338B503689A6812F0010F01D156
:102D8000002038BD04469A6822F001029A60FFF7DD
:102D9000F1FE054623689B6813F0010F13D0FFF77F
:102DA000E9FE431B022BF5D923689B6813F0010F42
:102DB000F0D0A36A43F01003A362E36A43F0010377
:102DC000E3620120DDE70020DBE7000000287BD084
:102DD00070B50446836A002B4DD02046FFF7CAFF2A
:102DE000A36A13F0100369D1002867D1A26A22F404
:102DF000885222F0020242F00202A2626268E16995
:102E00000A43217B42EA4102A568B5F5807F02D0E2
:102E1000012D36D01D46267D012E35D026687168DD
:102E200021F46941294371602568AE682749314022
:102E30001143A960A168B1F5807F01D0012902D1B9
:102E40002369013B1B052568E96A21F470010B43E6
:102E5000EB62236899681E4B0B409A4225D0A36A07
:102E600023F0120343F01003A362E36A43F001036B
:102E7000E362012027E0C36280F82430FFF7EAF81C
:102E8000ABE74FF48075C6E731B9A169013945EA6E
:102E9000413141F40065C1E7A16A41F02001A1621E
:102EA000E16A41F00101E162B8E70023E362A36A4D
:102EB00023F0030343F00103A36204E0A36A43F099
:102EC0001003A362012070BD01207047FDF7E1FFF0
:102ED000FE0E1FFF70B582B00023019390F82430DE
:102EE000012B72D00446012380F82430FFF742FF03
:102EF0002046FFF7FBFE054628B1002384F8243066
:102F0000284602B070BDA36A23F4885323F002035D
:102F100043F00203A3622E4B1E68022000F046FF1E
:102F2000B6FBF0F67600019602E0019B013B0193AF
:102F3000019B002BF9D12268936843F0080393604A
:102F4000FFF718FE064623689A6812F0080F14D09F
:102F5000FFF710FE801B0A28F5D923689B6813F041
:102F6000080FF0D0A36A23F0120343F01003A3620A
:102F7000002384F824300125C2E79A6842F0040255
:102F80009A60FFF7F7FD064623689B6813F0040F6D
:102F900014D0FFF7EFFD801B0A28F5D923689B6842
:102FA00013F0040FF0D0A36A23F0120343F01003D0
:102FB000A362002384F824300125A1E7A36A23F04B
:102FC000030343F00103A36297E7022598E700BFDC
:102FD00004000020074AD36823F4E0631B041B0CA1
:102FE000000200F4E060034343F0BF6343F40033A6
:102FF000D360704700ED00E000B5194BDB68C3F308
:103000000223C3F1070CBCF1040F28BF4FF0040CDE
:1030100003F1040EBEF1060F18D9033B4FF0FF3E3B
:103020000EFA0CFC21EA0C0199400EFA03F322EA95
:103030000303194300280BDB0901C9B200F160400A
:1030400000F5614080F800135DF804FB0023E5E71C
:1030500000F00F000901C9B2024B1954F4E700BF98
:1030600000ED00E014ED00E0002807DB00F01F0297
:10307000400901239340024A42F82030704700BFC4
:1030800000E100E030B40124056CAC40C56B6C601D
:10309000046863604368102B05D003689960036877
:1030A000DA6030BC704703689A600368D960F8E75B
:1030B00060B310B402460168154B0B441548A0FBE1
:1030C00003031B099B001364134BD363022382F891
:1030D0002130086820F47F5020F030005368946855
:1030E0002343D468234314692343546923439469D5
:1030F0002343D469234303430B60002090630123DF
:1031000082F8213082F8200010BC704701207047FF
:10311000F8FFFDBFCDCCCCCC0000024038B5044652
:1031200090F82000012832D0012084F8200094F883
:103130002100C0B2012804D0002384F820300220EE
:1031400038BD022084F821000020A063256828688B
:1031500020F0010028602046FFF794FFE36A5BB18E
:103160002268136843F00E0313602268136843F06B
:10317000010313600020E3E72268136823F00403CF
:1031800013602268136843F00A031360EDE702201E
:10319000D6E790F82130DBB2022B06D004238363FC
:1031A000002380F82030012070470268136823F064
:1031B0000E0313600268136823F001031360036CAD
:1031C000C16B012202FA03F34B6080F82120002337
:1031D00080F820301846704708B590F82130DBB2EF
:1031E000022B03D004238363012008BD0268136807
:1031F00023F00E0313600268136823F001031360C9
:103200000368194A934214D0143293421FD01432E7
:1032100093421ED0143293421ED0143293421ED0D9
:103220001432934202D04FF0807203E04FF48012C8
:1032300000E001220D4B5A60012380F82130002369
:1032400080F82030436B6BB198470020CDE7102207
:10325000F0E74FF48072EDE74FF48052EAE74FF465
:103260008032E7E70020C0E708000240000002408B
:1032700038B5C36B1A6804682568016C04238B4059
:10328000134235D015F0040F32D0236813F0200F0D
:1032900003D1236823F0040323600368434A934265
:1032A00014D01432934218D01432934217D01432EF
:1032B000934217D01432934217D01432934202D063
:1032C0004FF0806203E04FF4800200E00422384BAC
:1032D0005A60C36A03B1984738BD4022F7E74FF4FC
:1032E0008062F4E74FF48042F1E74FF48022EEE78A
:1032F00002238B4013423CD015F0020F39D02368D3
:1033000013F0200F06D1236823F00A032360012362
:1033100080F821300368254A934214D01432934236
:103320001CD0143293421BD0143293421BD014325F
:1033300093421BD01432934202D04FF0007203E04C
:103340004FF4001200E00222194B5A60002380F86B
:103350002030836A002BBFD09847BDE72022F3E7D7
:103360004FF40072F0E74FF40052EDE74FF40032F3
:10337000EAE7082303FA01F11142ADD015F0080F76
:10338000AAD0236823F00E032360026CC16B0123D3
:1033900003FA02F24A60836380F82130002380F848
:1033A0002030036B002B97D0984795E70800024028
:1033B0000000024070B582B00024A446A6E0804D13
:1033C000AA4210D007D97F4DAA420CD005F580350E
:1033D000AA4208D013E0A5F58015AA4203D005F54E
:1033E0007025AA4207D18A68002A58D0012A51D0F4
:1033F0004361082403E0A5F58015AA42F3D0BEF18D
:10340000FF0F4ED80646BEF1FF0F4CD84FEA8C0294
:1034100033680F25954023EA050304FA02F21343AB
:1034200033604B6813F0805F6ED0674B9A6942F04F
:1034300001029A619B6903F001030193019B4FEA2A
:103440009C02951C614B53F825600CF003039D0012
:103450000F23AB4026EA03065D4B984229D003F5C3
:103460008063984200F08E8003F58063984200F0FC
:103470008B8003F58063984219D004231AE0CC684E
:10348000BDE7CC680434BAE7CC680834B7E7CC6849
:103490000C34B4E703610824B1E70024AFE7042447
:1034A000ADE7061DAFE7ACF108029200B0E70323D9
:1034B00000E00023AB4033430232444D45F8223054
:1034C0004B6813F4801F61D0424A936843EA0E03AD
:1034D00093604B6813F4001F5ED03E4AD36843EA02
:1034E0000E03D3604B6813F4003F5BD0394A536836
:1034F00043EA0E0353604B6813F4803F58D0354ABB
:10350000136843EA0E0313600CF1010C0A6832FAE7
:103510000CF353D0012303FA0CF302EA030E33EA4F
:103520000202F1D14A68122A3FF649AF122A3FF649
:1035300066AF01A555F822F0E73300087F34000894
:10354000893400089B340008FF330008FF3300086B
:10355000FF330008FF330008FF330008FF33000883
:10356000FF330008FF330008FF330008FF33000873
:10357000FF330008FF330008FF33000883340008DE
:103580008F340008012395E7022393E7114A9368DB
:1035900023EA0E0393609CE70E4AD36823EA0E03E6
:1035A000D3609FE70B4A536823EA0E035360A2E7F8
:1035B000084A136823EA0E031360A5E702B070BD42
:1035C00000002210000031100010024000000140F5
:1035D00000080140000401408368194201D0012025
:1035E0007047002070470AB101617047090401610A
:1035F0007047704708B5054B5B69034200D108BDB1
:10360000024B5861FFF7F5FFF9E700BF00040140E6
:1036100082B0084B1B68084AA2FB03235B0A00FB2D
:1036200003F3019300BF019B5A1E0192002BF9D1B5
:1036300002B0704704000020D34D6210002800F053
:10364000F18170B582B00446036813F0010F2CD0ED
:10365000994B5B6803F00C03042B1DD0964B5B6801
:1036600003F00C03082B12D06368B3F5803F41D000
:10367000002B55D103F1804303F504331A6822F47B
:1036800080321A601A6822F480221A6037E08A4B6E
:103690005B6813F4803FE7D0874B1B6813F4003F4F
:1036A00003D06368002B00F0BF81236813F0020F82
:1036B00075D0814B5B6813F00C0F5FD07E4B5B685D
:1036C00003F00C03082B54D02369002B00F08A80F0
:1036D0007A4B01221A60FFF74DFA0546764B1B68BC
:1036E00013F0020F75D1FFF745FA401B0228F5D9F8
:1036F00003209EE1704A136843F4803313606368CB
:1037000043B3FFF737FA05466B4B1B6813F4003FD2
:10371000CBD1FFF72FFA401B6428F5D9032088E1AD
:10372000B3F5A02F09D0644B1A6822F480321A60D6
:103730001A6822F480221A60E1E703F18043A3F5BE
:103740003C331A6842F480221A601A6842F48032CC
:103750001A60D4E7FFF70EFA0546574B1B6813F4BF
:10376000003FA2D0FFF706FA401B6428F5D90320DA
:103770005FE1514B5B6813F4803FA5D14E4B1B6852
:1037800013F0020F03D02369012B40F04F814A4A06
:10379000136823F0F803616943EAC10313602368E7
:1037A00013F0080F33D0A369002B5CD0434B0122E8
:1037B000C3F88024FFF7DEF905463F4B5B6A13F040
:1037C000020F21D1FFF7D6F9401B0228F5D90320BB
:1037D0002FE1394A136823F0F803616943EAC10312
:1037E0001360DCE7354B00221A60FFF7C3F905468A
:1037F000314B1B6813F0020FD1D0FFF7BBF9401B10
:103800000228F5D9032014E10120FFF701FF236806
:1038100013F0040F00F09680274BDB6913F0805FF4
:1038200034D1254BDA6942F08052DA61DB6903F06A
:1038300080530193019B0125214B1B6813F4807F6A
:1038400026D0E368012B3DD0002B53D103F18043F8
:1038500003F504331A6A22F001021A621A6A22F08E
:1038600004021A6233E0154B0022C3F88024FFF7EC
:1038700081F90546104B5B6A13F0020FC7D0FFF7C2
:1038800079F9401B0228F5D90320D2E00025D3E7BF
:103890000B4A136843F480731360FFF76BF9064615
:1038A000074B1B6813F4807FCBD1FFF763F9801BB4
:1038B0006428F5D90320BCE0001002400000424219
:1038C000007000405F4A136A43F001031362E3682B
:1038D00033B3FFF74FF906465A4B1B6A13F0020F3A
:1038E0002FD1FFF747F9801B41F288339842F3D973
:1038F00003209EE0052B09D0524B1A6A22F00102E8
:103900001A621A6A22F004021A62E0E74D4B1A6A40
:1039100042F004021A621A6A42F001021A62D6E701
:10392000FFF728F90646474B1B6A13F0020F08D031
:10393000FFF720F9801B41F288339842F3D9032026
:1039400077E0E5B9E369002B72D03E4A526802F095
:103950000C02082A56D0022B17D03B4B00221A66C5
:10396000FFF708F90446374B1B6813F0007F47D078
:10397000FFF700F9001B0228F5D9032059E0314A6E
:10398000D36923F08053D361DCE72F4B00221A6602
:10399000FFF7F0F805462B4B1B6813F0007F06D0AD
:1039A000FFF7E8F8401B0228F5D9032041E0236A1D
:1039B000B3F5803F1AD023494B6823F47413226A6D
:1039C000606A024313434B601F4B01221A66FFF7E4
:1039D000D1F804461B4B1B6813F0007F0ED1FFF794
:1039E000C9F8001B0228F5D9032022E0154A5368C4
:1039F00023F40033A1680B435360DCE7002018E098
:103A0000002016E0012B16D00E4B5B6803F48031CA
:103A1000226A914211D103F47013626A93420ED16B
:103A2000002006E001207047012002E0012000E0B4
:103A3000002002B070BD0120FBE70120F9E7012062
:103A4000F7E700BF00100240000042420F4B5B68E6
:103A500003F00C02082A01D00D487047C3F38342DB
:103A60000C49885C13F4803F0BD0084B5B68C3F3B0
:103A70004043094AD35C064A02FB00F0B0FBF3F076
:103A80007047064B03FB00F0704700BF0010024078
:103A900000127A00DCEC0008ECEC000800093D00A4
:103AA000002800F0A08070B50D460446524B1B68FC
:103AB00003F007038B420BD24F4A136823F007032E
:103AC0000B431360136803F007038B4240F08D80B3
:103AD000236813F0020F17D013F0040F04D0474AE5
:103AE000536843F4E0635360236813F0080F04D075
:103AF000424A536843F460535360404A536823F08A
:103B0000F003A1680B435360236813F0010F31D019
:103B10006368012B20D0022B25D0384A126812F09E
:103B2000020F64D035494A6822F0030213434B6008
:103B3000FFF720F80646314B5B6803F00C03626820
:103B4000B3EB820F16D0FFF715F8801B41F28833D4
:103B50009842F0D9032045E0284A126812F4003F49
:103B6000E0D101203EE0254A126812F0007FD9D151
:103B7000012037E0204B1B6803F00703AB420AD952
:103B80001D4A136823F007032B431360136803F0E7
:103B90000703AB422DD1236813F0040F06D0174A58
:103BA000536823F4E063E1680B435360236813F028
:103BB000080F07D0114A536823F46053216943EA80
:103BC000C1035360FFF742FF0C4B5B68C3F3031361
:103BD0000B4AD35CD8400B4B18600B4B1868FEF7B0
:103BE0003FFC002070BD012070470120FAE7012052
:103BF000F8E70120F6E700BF002002400010024075
:103C0000C4EC0008040000200C000020014B1868E0
:103C1000704700BF0400002008B5FFF7F7FF044B12
:103C20005B68C3F30223034AD35CD84008BD00BFDE
:103C300000100240D4EC000808B5FFF7E7FF044B82
:103C40005B68C3F3C223034AD35CD84008BD00BFFE
:103C500000100240D4EC00080F2303600B4B5A689D
:103C600002F0030242605A6802F0F00282605A6871
:103C700002F4E062C2605B68DB0803F4E0630361A6
:103C8000034B1B6803F007030B60704700100240F2
:103C90000020024070B582B00446036813F0010FA3
:103CA00036D03F4BDB6913F0805F49D13C4BDA697A
:103CB00042F08052DA61DB6903F080530193019B8B
:103CC0000125384B1B6813F4807F3BD0344B1B6AB3
:103CD00013F4407313D0626802F440729A420ED01B
:103CE0002F4A136A23F440702F490126C1F840641B
:103CF0000026C1F84064106213F0010F36D1284A43
:103D0000136A23F4407361680B431362002D3ED1A4
:103D1000236813F0020F06D0214A536823F440436E
:103D2000A1680B435360236813F0100F34D01C4A72
:103D3000536823F48003E1680B43536000202CE0B8
:103D40000025BEE7174A136843F480731360FEF73B
:103D500011FF0646134B1B6813F4807FB6D1FEF7A4
:103D600009FF801B6428F5D9032016E0FEF702FF47
:103D700006460B4B1B6A13F0020FC0D1FEF7FAFE8A
:103D8000801B41F288339842F3D9032005E0D369C0
:103D900023F08053D361BBE7002002B070BD00BFA9
:103DA00000100240007000400000424208B50228A6
:103DB0004ED0102803D0012828D0002008BD2B4B5E
:103DC0005A68186810F08070F8D0C2F3834328490D
:103DD000C85C12F4803F15D0244B5B68C3F34043AA
:103DE000244AD25C244BB3FBF2F303FB00F01F4BDD
:103DF0005B6813F4800FE1D14000204BA3FB00303F
:103E00004008DBE71E4B03FB00F0F0E7174B1B6A93
:103E100040F202321A40B2F5817F24D003F440739D
:103E2000B3F5007F04D0B3F5407F09D00020C5E78B
:103E30000E4A526A12F0020FF5D049F64040BDE733
:103E40000A4B186810F40030B8D04FF22440B5E7A0
:103E5000FFF7F2FE054B5B68C3F3813301335B0070
:103E6000B0FBF3F0AAE74FF40040A7E700100240D0
:103E7000F0EC000800ED000800127A00ABAAAAAA34
:103E800000093D0070B4036A026A22F00102026276
:103E90004668826922F073020C6844EA020523F046
:103EA00002028B6813430D4CA04209D00B4CA04278
:103EB0000DD0466085614A684263036270BC7047FA
:103EC00023F00803CA68134323F00403EEE726F443
:103ED00040764A6932438E691643EAE7002C014076
:103EE00030B4036A026A22F4807202624568C269D1
:103EF00022F073020C68224323F400738C6843EAB7
:103F000004230F4CA04209D00D4CA0420ED04560B6
:103F1000C2614A68C263036230BC704723F4006325
:103F2000CC6843EA042323F48063EDE725F440558D
:103F30004C6945EA04158C6945EA0415E7E700BFBA
:103F4000002C014030B4036A026A22F480520262FB
:103F50004468C26922F4E6420D6842EA052223F46D
:103F600000538D6843EA0533074DA84206D04460EC
:103F7000C2614A680264036230BC704724F4804422
:103F80004D6944EA8514F2E7002C014070470000B7
:103F900090F83D30DBB2012B27D1022380F83D3071
:103FA0000268D36843F00103D3600368114A934267
:103FB00010D0B3F1804F0DD0A2F59432934209D0C6
:103FC00002F58062934205D01A6842F001021A603D
:103FD000002070479A6802F00702062A07D01A6884
:103FE00042F001021A600020704701207047002053
:103FF000704700BF002C0140704770477047704702
:1040000010B5044603681A6912F0020F11D0DA687D
:1040100012F0020F0DD06FF002021A610123037734
:1040200003689B6913F0030F70D0FFF7E6FF0023CE
:10403000237723681A6912F0040F12D0DA6812F09D
:10404000040F0ED06FF004021A6102232377236855
:104050009B6913F4407F5FD02046FFF7CEFF00231B
:10406000237723681A6912F0080F12D0DA6812F069
:10407000080F0ED06FF008021A610423237723681B
:10408000DB6913F0030F4ED02046FFF7B6FF002385
:10409000237723681A6912F0100F12D0DA6812F031
:1040A000100F0ED06FF010021A61082323772368D7
:1040B000DB6913F4407F3DD02046FFF79EFF0023CD
:1040C000237723681A6912F0010F03D0DA6812F01F
:1040D000010F36D123681A6912F0800F03D0DA6815
:1040E00012F0800F34D123681A6912F0400F03D008
:1040F000DA6812F0400F32D123681A6912F0200FEB
:1041000003D0DA6812F0200F30D110BDFFF774FF32
:104110002046FFF773FF8AE72046FFF76DFF204632
:10412000FFF76CFF9BE72046FFF766FF2046FFF78F
:1041300065FFACE72046FFF75FFF2046FFF75EFF15
:10414000BDE76FF001021A612046FEF7D3F8C1E720
:104150006FF080021A61204600F0E2FAC3E76FF0C8
:1041600040021A612046FFF74AFFC5E76FF02002C0
:104170001A61204600F0D3FAC7E7000003681B4A23
:1041800090420AD0B0F1804F07D0A2F5943290420D
:1041900003D002F58062904203D123F070034A6895
:1041A0001343124A90420AD0B0F1804F07D0A2F5D3
:1041B0009432904203D002F58062904203D123F4FE
:1041C0004073CA68134323F080034A6913430360B2
:1041D0008B68C3620B688362044B984202D0012350
:1041E000436170470B690363F9E700BF002C01408E
:1041F00040B310B5044690F83D30F3B1022384F883
:104200003D30214651F8040BFFF7B8FF012384F835
:10421000463084F83E3084F83F3084F8403084F8EB
:10422000413084F8423084F8433084F8443084F8D4
:10423000453084F83D30002010BD80F83C30FFF759
:10424000A5FEDBE70120704740B310B5044690F8A7
:104250003D30F3B1022384F83D30214651F8040B80
:10426000FFF78CFF012384F8463084F83E3084F851
:104270003F3084F8403084F8413084F8423084F88C
:10428000433084F8443084F8453084F83D300020D1
:1042900010BD80F83C30FEF739FADBE701207047AB
:1042A000002857D070B50D46044690F83D30002BDD
:1042B0004BD0022384F83D302268936823F4804376
:1042C00023F007039360214651F8040BFFF756FFD4
:1042D00021688A688B690E6A2868104323F4407C41
:1042E0002CF0030CAA68AB6942EA032343EA0C03EF
:1042F00023F47C4323F0FC03EA69D5F80CC04CEAB4
:10430000022C4CEA030C2A6A13032A6943EA0213BB
:1043100043EA0C0326F022066A686D6942EA051238
:104320003243886021688B6123681A62012384F814
:10433000463084F83E3084F83F3084F8423084F8C8
:10434000433084F83D30002070BD80F83C30FEF7EB
:10435000F3F9AEE70120704730B4036A026A22F035
:10436000100202624468826922F4E6420D6842EA61
:10437000052223F020038D6843EA05130E4DA84261
:1043800009D00D4DA8420ED0446082614A68826314
:10439000036230BC704723F08003CD6843EA051305
:1043A00023F04003EDE724F440644D6944EA8504BA
:1043B0008D6944EA8504E7E7002C014038B590F8A0
:1043C0003C30012B66D004460D46012380F83C307A
:1043D0000C2A5AD8DFE802F0075959591B59595984
:1043E0003059595944000068FFF74CFD2268936921
:1043F00043F0080393612268936923F004039361F7
:104400002268936929690B43936100203EE00068AC
:10441000FFF7A2FF2268936943F400639361226867
:10442000936923F48063936122689369296943EA5D
:1044300001239361002029E00068FFF751FD226805
:10444000D36943F00803D3612268D36923F00403DE
:10445000D3612268D36929690B43D361002015E039
:104460000068FFF76FFD2268D36943F40063D361EE
:104470002268D36923F48063D3612268D3692969F0
:1044800043EA0123D361002000E00120002384F8E7
:104490003C3038BD0220FCE701F01F01012303FA84
:1044A00001FC036A23EA0C030362036A02FA01F1C6
:1044B0000B4303627047000010B50446084651BB29
:1044C00094F83E30DBB2013B18BF0123002B5BD1D7
:1044D000002839D1022384F83E30012201462068A9
:1044E000FFF7DAFF23682A4A93423DD02368284A1F
:1044F00093423ED0B3F1804F3BD0A2F59432934229
:1045000037D002F58062934233D01A6842F001023C
:104510001A60002039E0042908D008290DD094F849
:104520004130DBB2013B18BF0123CFE794F83F30A5
:10453000DBB2013B18BF0123C8E794F84030DBB27F
:10454000013B18BF0123C1E7042805D0082807D084
:10455000022384F84130C0E7022384F83F30BCE7EF
:10456000022384F84030B8E75A6C42F400425A649F
:10457000BCE79A6802F00702062A07D01A6842F0E0
:1045800001021A60002000E0012010BD0020FCE7BD
:10459000002C014038B5044690F83E00C0B294F8B3
:1045A0003F3094F84220D2B294F843C00D46B1B9DE
:1045B000012849D1012A48D1022384F83E3084F8E9
:1045C00042307DB3042D39D0012200212068FFF74D
:1045D00063FF012204212068FFF75EFF27E0DBB2C2
:1045E0005FFA8CFC042912D0012833D1012B2CD185
:1045F000012A31D1BCF1010F30D1022384F83E30C1
:1046000084F83F3084F8423084F84330D9E7012BF6
:104610001CD1BCF1010F1BD1022384F83F3084F878
:104620004330CEE7012200212068FFF735FF2268E2
:10463000136843F001031360002006E00122042107
:104640002068FFF729FFF2E7012038BD0120FCE7D1
:104650001846FAE70120F8E71846F6E71046F4E7AF
:1046600090F83C30012B2CD010B4012380F83C3062
:10467000022380F83D3003685A689C6822F0700C71
:104680000A6842EA0C025A6003680F4A93420AD051
:10469000B3F1804F07D0A2F59432934203D002F5D4
:1046A0008062934204D124F080044A6814439C60E1
:1046B000012380F83D30002380F83C30184610BCC0
:1046C00070470220704700BF002C014090F83C303A
:1046D000012B22D0012380F83C30CB6823F44073B7
:1046E0008A68134323F480634A68134323F4006306
:1046F0000A68134323F480530A69134323F40053D5
:104700004A69134323F48043CA691343026853641C
:10471000002380F83C3018467047022070477047ED
:104720007047026802F10C0353E8003F23F0C00316
:104730000C3242E800310029F3D1202380F84130C7
:104740007047026802F10C0353E8003F23F49073B2
:104750000C3242E800310029F3D1026802F114035F
:1047600053E8003F23F00103143242E800310029EE
:10477000F3D1036B012B05D0202380F842300023B6
:1047800003637047026802F10C0353E8003F23F013
:1047900010030C3242E800310029F3D1ECE790F825
:1047A0004130DBB2212B01D0022070478368B3F582
:1047B000805F17D0036A5A1C02621A7803685A6035
:1047C000C38C9BB2013B9BB2C3844BB90268D368D4
:1047D00023F08003D3600268D36843F04003D360C2
:1047E000002070470369002BE4D1036A1B8802682C
:1047F000C3F308035360036A02330362E0E7000077
:1048000010B504460268136923F44053C1680B4392
:10481000136183680269134342691A430168CB68D4
:1048200023F4B05323F00C031343CB6002685369A5
:1048300023F4407381690B4353610268134B9A421E
:1048400020D0FFF7E9F9024602EB820202EB820276
:1048500063689B00B2FBF3F20D48A0FB02314909EB
:10486000642303FB11231B013233A0FB03235B09E9
:1048700003F0F00202EB011203F00F03216813446E
:104880008B6010BDFFF7D8F90246DDE70038014024
:104890001F85EB5160B310B5044690F8413013B357
:1048A000242384F841302268D36823F40053D36072
:1048B0002046FFF7A5FF2268136923F49043136194
:1048C0002268536923F02A0353612268D36843F4B2
:1048D0000053D36000206064202384F8413084F8C2
:1048E0004230606310BD80F84030FEF731F8D7E702
:1048F0000120704738B590F84130DBB2202B30D121
:10490000044600292FD00AB9012038BD01628284F3
:10491000C28400234364212084F84100A06B134D1E
:104920008562A06B124DC562A06B124D0563A06B32
:10493000436320681346021DA06BFEF7EFFB23685C
:104940006FF040021A60226802F1140353E8003F3E
:1049500043F08003143242E800310029F3D10020F3
:10496000D3E70220D1E70120CFE700BFFF490008CD
:10497000674A0008774A000810B5044603685A6978
:1049800090F84130DBB2212B0AD023685A6902F03B
:10499000400294F84230DBB2222B19D0002010BD27
:1049A00002F08002002AF0D0226802F1140353E8DA
:1049B000003F23F08003143242E800310029F3D194
:1049C000A06B08B1FEF7E5FB2046FFF7AAFEDCE787
:1049D000002AE3D0226802F1140353E8003F23F0D9
:1049E0004003143242E800310029F3D1E06B08B1F2
:1049F000FEF7CFFB2046FFF7A4FECFE7704708B5D0
:104A00000346406A1B681B6813F0200F1AD100236D
:104A1000C384026802F1140353E8003F23F08003CB
:104A2000143242E800310029F3D1026802F10C038C
:104A300053E8003F43F040030C3242E800310029C4
:104A4000F3D108BDFFF7DAFFFBE708B50168CA68D4
:104A500022F04002CA60202280F84120FFF7CEFFFA
:104A6000002008BD704708B5406AFFF7FBFF08BD8E
:104A700070477047704710B5446A23685A6994F8C4
:104A80004130DBB2212B10D023685A6902F040027A
:104A900094F84230DBB2222B11D0636C43F0100348
:104AA00063642046FFF7E6FF10BD02F08002002A93
:104AB000EAD00023E3842046FFF733FEE4E7002A30
:104AC000EBD00023E3852046FFF73BFEE5E708B582
:104AD000406A0023C385C384FFF7CCFF08BD70473D
:104AE00090F84230DBB2222B69D18368B3F5805F46
:104AF0004FD0826AB3F5805F04D0002B56D1036992
:104B0000002B53D103685B681370836A013383629F
:104B1000C38D9BB2013B9BB2C385002B51D100B525
:104B200083B00268D36823F02003D3600268D3689F
:104B300023F48073D3600268536923F00103536147
:104B4000202380F8423000234363036B012B33D1D1
:104B500000230363026802F10C0353E8003F23F0D3
:104B600010030C3242E800310029F3D103681A68BF
:104B700012F0100F06D0002201921A6801925B68B1
:104B80000193019B818DFFF7AAFF002003B05DF820
:104B900004FB0269002AACD1826A03685B68C3F334
:104BA00008031380836A02338362B1E703685B689A
:104BB00003F07F031370A8E7FFF75AFFE5E7022031
:104BC000704700207047000030B583B0044602688B
:104BD0001368D068516913F00F0505D113F0200F49
:104BE00002D010F0200F19D12DB111F0010119D10F
:104BF00010F4907F16D1216B01297DD013F0800F26
:104C000003D010F0800F40F0188113F0400F03D054
:104C100010F0400F40F0158103B030BD2046FFF783
:104C20005FFFF9E713F0010F06D010F4807F03D087
:104C3000626C42F00102626413F0040F04D019B1F7
:104C4000626C42F00202626413F0020F04D019B1E8
:104C5000626C42F00402626413F0080F07D010F097
:104C6000200F00D119B1626C42F008026264626CDC
:104C7000002AD1D013F0200F02D010F0200F29D13C
:104C800023685B6903F04003626C12F0080F00D1E7
:104C900063B32046FFF755FD23685B6913F0400FAF
:104CA00020D0226802F1140353E8003F23F04003B0
:104CB000143242E800310029F3D1E36B73B1634A47
:104CC0005A63E06BFEF788FA0028A5D0E06B436BCF
:104CD0009847A1E72046FFF703FFD1E72046FFF7FB
:104CE000C9FE99E72046FFF7C5FE95E72046FFF786
:104CF000C1FE002363648FE713F0100F3FF47EAF13
:104D000010F0100F3FF47AAF002301931368019362
:104D100053680193019B536913F0400F51D0E26B2C
:104D200013685B689BB2002B3FF476AFA18D99426C
:104D30007FF672AFE3859369202B37D0226802F1AA
:104D40000C0353E8003F23F480730C3242E8003137
:104D50000029F3D1226802F1140353E8003F23F045
:104D60000103143242E800310029F3D1226802F134
:104D7000140353E8003F23F04003143242E80031AB
:104D80000029F3D1202384F84230002323632268D2
:104D900002F10C0353E8003F23F010030C3242E809
:104DA00000310029F3D1E06BFEF7F3F902236363CE
:104DB000A18DE38D9BB2C91A89B22046FFF78FFE01
:104DC0002AE7A18DE38D9BB2C91A89B2E38D9BB20C
:104DD000002B3FF421AF00293FF41EAF226802F1FF
:104DE0000C0353E8003F23F490730C3242E8003088
:104DF0000028F3D1226802F1140353E8003F23F0A6
:104E00000103143242E800300028F3D1202384F853
:104E1000423000232363226802F10C0353E8003F71
:104E200023F010030C3242E800300028F3D10223B3
:104E300063632046FFF753FEEEE62046FFF7AFFC24
:104E4000EAE62046FFF701FEE6E600BFCF4A00088B
:104E500008B5406A01234363036B012B02D0FFF7BF
:104E600008FE08BD818D4908FFF739FEF9E708B54E
:104E70000346406A1B681B6813F0200F2BD10023E8
:104E8000C385026802F10C0353E8003F23F48073EA
:104E90000C3242E800310029F3D1026802F1140318
:104EA00053E8003F23F00103143242E800310029A7
:104EB000F3D1026802F1140353E8003F23F04003EA
:104EC000143242E800310029F3D1202380F8423027
:104ED000036B012B07D000234363036B012B0FD01F
:104EE000FFF7C6FD08BD026802F10C0353E8003F5E
:104EF00023F010030C3242E800310029F3D1EAE735
:104F0000818DFFF7ECFDEDE730B583B00446134625
:104F10008162828500254564222280F84220C26B8E
:104F20001F489062E26B1F48D062E26B1E4810631C
:104F3000E26B556320680A46011DE06BFEF7EEF850
:104F4000019523681A6801925B680193019B2369AC
:104F50005BB1226802F10C0353E8003F43F4807315
:104F60000C3242E800310029F3D1226802F1140327
:104F700053E8003F43F00103143242E800310029B6
:104F8000F3D1226802F1140353E8003F43F04003D9
:104F9000143242E800310029F3D1002003B030BDC3
:104FA0006F4E0008514E0008774A000808B590F887
:104FB0004230DBB2202B08D149B10AB9012008BD2B
:104FC00000230363FFF7A0FFF9E70220F7E70120C2
:104FD000F5E70000EFF3058393B9EFF3108393B97E
:104FE0000C4B1868022804D080B90A4B01221A60C1
:104FF0007047EFF31183002BF6D06FF00500704778
:105000006FF0050070476FF0050070474FF0FF30FC
:10501000704700BFC415002008B5EFF30583B3B98E
:10502000EFF31083B3B90E4B1B68022B08D0012B92
:1050300013D10B4B02221A6001F0D4F8002008BDF6
:10504000EFF31182002AF2D06FF00500F7E76FF05E
:105050000500F4E76FF00500F1E74FF0FF30EEE7F1
:10506000C4150020F0B587B000240494EFF3058444
:10507000002C43D1EFF31083002B3FD1334B1B683F
:10508000022B16D0002839D000238DF8173062B3D8
:10509000156895B1936903B918235C1E372C51D854
:1050A000546814F0010F4FD156694EB14FEA960C77
:1050B00008E0EFF311830BBBE4E70DF11705E9E717
:1050C0004FF0800C94682CB1D7685B2F02D9176918
:1050D00007B1B6B914B14FF0FF340CE0D46894B9FD
:1050E00014699CB14FF0FF3405E0002418234FF001
:1050F000800C0DF11705012C0AD0ACB1049807B053
:10510000F0BD0124F7E74FF0FF34F4E70024F2E7A5
:10511000146992680292019400930B4662462946F4
:1051200000F0F2FF0490E9E704AA019200930B4615
:105130001FFA8CF2294601F021F80128DED0002365
:105140000493DBE70020DAE70020D8E7C41500204D
:1051500008B5EFF30583A3B9EFF31083A3B90C4BA4
:105160001B68022B02D040B9002008BDEFF3118369
:10517000002BF8D06FF00500F7E701F0E9F9002007
:10518000F3E76FF00500F0E76FF00500EDE700BF13
:10519000C4150020034B0360034B0B608023136096
:1051A000704700BF6815002068130020034B0360A0
:1051B000034B0B604FF4807313607047C8190020D5
:1051C000C815002000F1080343604FF0FF328260F1
:1051D000C3600361002303607047002303617047CD
:1051E00043684B609A688A605160996008610368FF
:1051F00001330360704730B40D68B5F1FF3F11D043
:1052000000F108031C465B681A68AA42FAD9636871
:105210004B6099608C6061600861036801330360D2
:1052200030BC70470469F2E70369416882688A60AC
:10523000416851605A68824206D0002202611A68B1
:10524000013A1A601868704782685A60F5E70000F2
:1052500082B0002301930D4B1B68B3F1FF3F08D0D0
:105260004FF0500383F31188BFF36F8FBFF34F8F5D
:10527000FEE74FF0500383F31188BFF36F8FBFF346
:105280004F8F019B002BFCD002B070471000002014
:1052900006480068006880F3088862B661B6BFF30C
:1052A0004F8FBFF36F8F00DF00BF000008ED00E0FD
:1052B0004FF0807340F8043C21F0010140F8081CD5
:1052C000034B40F80C3C40F8202C4038704700BF9E
:1052D0005152000800000000000000000000000023
:1052E000074B19680868B0E8F00F80F30988BFF32E
:1052F0006F8F4FF0000080F311884EF00D0E704755
:10530000944100204FF0500383F31188BFF36F8F57
:10531000BFF34F8F0B4A136801331360012B00D08A
:1053200070474FF0E023D3F8043D13F0FF0FF7D0A0
:105330004FF0500383F31188BFF36F8FBFF34F8F8C
:10534000FEE700BF10000020094B1B6843B94FF077
:10535000500383F31188BFF36F8FBFF34F8FFEE7C6
:10536000013B034A13600BB983F31188704700BFF8
:1053700010000020000000000000000000000000FD
:10538000EFF30980BFF36F8F0D4B1A6820E9F00F20
:1053900010602DE908404FF0500080F3118801F0B3
:1053A000FDF84FF0000080F31188BDE8084019684F
:1053B0000868B0E8F00F80F30988BFF36F8F70477B
:1053C0009441002008B54FF0500383F31188BFF3D8
:1053D0006F8FBFF34F8F00F061FF28B14FF0E023D4
:1053E0004FF08052C3F8042D002383F3118808BDC9
:1053F0004FF0E022002313619361054B1B680549C0
:10540000A1FB03139B09013B536107231361704701
:1054100004000020D34D621010B582B02A4B1A78D8
:10542000D2B20192FF221A701B78DBB28DF80330E2
:105430009DF8033003F05003244A1370244B0722D5
:105440001A6009E0224A1368013B13609DF803309B
:105450005B00DBB28DF803309DF8033013F0800F52
:10546000F0D11B4B1B68032B08D04FF0500383F384
:105470001188BFF36F8FBFF34F8FFEE71B02144AF3
:10548000136003F4E0631360019BDBB20E4A1370F8
:105490004FF0E023D3F8202D42F47002C3F8202D02
:1054A000D3F8202D42F07042C3F8202DFFF7A0FF63
:1054B0000024084B1C60FFF7EBFE01F06FF8FFF7CC
:1054C000C7FE204602B010BD00E400E0241A002010
:1054D000281A002010000020EFF305830F2B0FD9AE
:1054E000114A9B5CDBB2114A12789A4208D94FF0FC
:1054F000500383F31188BFF36F8FBFF34F8FFEE725
:105500004FF0E023D3F80C3D03F4E063084A12683F
:10551000934208D94FF0500383F31188BFF36F8F84
:10552000BFF34F8FFEE77047F0E300E0241A00203E
:10553000281A0020134A12F0070F1FD0D11D21F0A6
:105540000701C1F51C53103313440A460E4802608C
:10555000002141601344083B23F007030B4803601C
:1055600059601960991A51601360094B1960094B11
:105570001960094B4FF000421A60704742F21073F5
:10558000E4E700BF301A00204C4100202C1A002014
:10559000484100204441002040410020154B1A465C
:1055A0001B688342FBD3516802EB010C844509D090
:1055B000416800EB010C634509D00360904218D0AC
:1055C000106070474068014451601046F0E710B425
:1055D000094C2468A3420AD05B68194441601368EF
:1055E0001B680360904200D0106010BC70470460DC
:1055F000F8E770474C4100202C1A002070B5054692
:1056000000F03EFE344B1B68A3B1344B1B681D42B7
:105610004AD135B1083515F0070F02D025F007053E
:105620000835002D42D02E4B1B68AB424DD32D4A7E
:10563000146804E0FFF77EFFE7E722461C46636834
:10564000AB4202D22368002BF7D1234B1B68A34245
:105650003DD0166808362368136063685B1B102B07
:1056600010D9601910F0070F08D04FF0500383F3E2
:105670001188BFF36F8FBFF34F8FFEE74360656004
:10568000FFF78CFF626816490B689B1A0B6016497E
:1056900009688B4201D214490B60104B1B681343FD
:1056A00063600023236002E0002600E0002600F093
:1056B00081FE16F0070F0CD04FF0500383F31188D2
:1056C000BFF36F8FBFF34F8FFEE70026EFE7002693
:1056D000EDE7304670BD00BF2C1A0020404100208D
:1056E000444100204C4100204841002080B338B59F
:1056F0000446A0F1080550F8043C164A126813420B
:1057000008D14FF0500383F31188BFF36F8FBFF3BD
:105710004F8FFEE750F8081C41B14FF0500383F360
:105720001188BFF36F8FBFF34F8FFEE723EA0203A9
:1057300040F8043C00F0A4FD54F8041C064A136829
:105740000B4413602846FFF729FF00F033FE38BDF5
:10575000704700BF404100204441002010B504467E
:10576000FFF7D0FDA26BE36B9A4204D00024FFF751
:10577000EBFD204610BD0124F9E710B50446FFF704
:10578000C1FDA36B23B90124FFF7DEFD204610BD48
:105790000024F9E770B504461546866B026C5AB9C9
:1057A00003681BB100200136A66370BD406801F09C
:1057B0001DF800236360F6E76DB98068FBF7E8FB2E
:1057C000226CA3681344A3606268934219D32368D0
:1057D000A3602846E7E7C068FBF7DAFB226C51427A
:1057E000E3689B1AE3602268934202D263680B4429
:1057F000E360022D01D00020D5E726B1013E002054
:10580000D1E72846CFE70020CDE708B50346026C74
:1058100062B10846D9681144D960D3F804C0614523
:1058200001D31968D960D968FBF7B2FB08BD38B558
:105830000546FFF767FD95F8454064B201E0013C7D
:1058400064B2002C0ADD6B6A43B105F1240000F05C
:1058500023FF0028F3D000F0B3FFF0E7FF2385F823
:105860004530FFF771FDFFF74DFD95F8444064B2F8
:1058700001E0013C64B2002C0ADD2B6943B105F163
:10588000100000F009FF0028F3D000F099FFF0E7C6
:10589000FF2385F84430FFF757FD38BD38B5E0B138
:1058A0000D460446FFF72EFD2368E26B216C01FBD9
:1058B000023060600020A063A360013A02FB013364
:1058C000E360FF2384F8443084F84530FDB9236950
:1058D00063B9FFF739FD012038BD4FF0500383F362
:1058E0001188BFF36F8FBFF34F8FFEE704F11000F5
:1058F00000F0D2FE0028ECD04FF0E0234FF08052B1
:10590000C3F8042DBFF34F8FBFF36F8FE1E704F1AE
:105910001000FFF757FC04F12400FFF753FCD8E711
:1059200038B51D46049C0B4649B92460E0632364E6
:1059300001212046FFF7B2FF84F84C5038BD2260A9
:10594000F4E740B94FF0500383F31188BFF36F8F32
:10595000BFF34F8FFEE710B584B01C46844653B1A9
:1059600092B189B94FF0500383F31188BFF36F8F61
:10597000BFF34F8FFEE74FF0500383F31188BFF35F
:105980006F8FBFF34F8FFEE76AB150230393039BE2
:10599000502B13D04FF0500383F31188BFF36F8F58
:1059A000BFF34F8FFEE70029EFD04FF0500383F392
:1059B0001188BFF36F8FBFF34F8FFEE7012384F889
:1059C000463000949DF818306046FFF7A9FF204646
:1059D00004B010BDF0B585B0019288B10F461D46E8
:1059E0000446B1B1022D20D1E36B012B1DD04FF045
:1059F000500383F31188BFF36F8FBFF34F8FFEE720
:105A00004FF0500383F31188BFF36F8FBFF34F8FB5
:105A1000FEE7036C002BE5D04FF0500383F31188B1
:105A2000BFF36F8FBFF34F8FFEE700F0CFFE064648
:105A300058B9019B002B48D04FF0500383F31188D5
:105A4000BFF36F8FBFF34F8FFEE700263DE02A467E
:105A500039462046FFF79EFE636A7BB948B14FF096
:105A6000E0234FF08052C3F8042DBFF34F8FBFF3F4
:105A70006F8FFFF769FC012005B0F0BD04F1240031
:105A800000F00AFE0028F4D04FF0E0234FF08052DF
:105A9000C3F8042DBFF34F8FBFF36F8FE9E7FFF714
:105AA00053FC0020E8E702A800F03CFE012619E0C4
:105AB000002384F8443021E0002384F8453023E0BB
:105AC0002046FFF7B4FE00F075FCFFF71BFCA26B4D
:105AD000E36B9A42BBD3022DB9D0019B002BDED0E1
